:020000040800F2
:10000000380A002045010008330A0008910800085A
:10001000310A000851050008F71D00080000000023
:100020000000000000000000000000003D0F00087C
:100030001307000800000000D90A00086510000836
:100040005F0100085F0100085F0100085F01000810
:100050005F0100085F010008150700085F01000844
:10006000190700085F0100081B0700085F0100086E
:100070005F0100085F0100085F0100085F010008E0
:100080005F0100085F0100085F0100085F010008D0
:100090005F0100085F0100085F0100081D070008FC
:1000A0005F0100085F0100085F0100085F010008B0
:1000B000311100085F0100085F0100085F010008BE
:1000C0005F0100085F0100085F0100085F01000890
:1000D0005F0100080D1A0008A51A0008B11B0008EE
:1000E000170700085F0100085F0100085F010008B2
:1000F0005F0100085F0100085F0100085F01000860
:100100005F0100085F0100085F0100085F0100084F
:100110005F0100085F0100085F0100085F0100083F
:100120005F0100085F0100085F0100085F0100082F
:10013000DFF80CD000F05CF8004800476B230008A3
:10014000380A00200648804706480047FEE7FEE7D9
:10015000FEE7FEE7FEE7FEE7FEE7FEE7FEE7FEE777
:10016000951000083101000840EA01039B0703D005
:1001700009E008C9121F08C0042AFAD203E011F8E6
:10018000013B00F8013B521EF9D270472DE9F05FA8
:100190000546002092469B468846064681464024F6
:1001A0001BE0284641464746224600F042F85346A7
:1001B0005A46C01A914110D311461846224600F003
:1001C00029F82D1A67EB01084F462246012000212D
:1001D00000F020F817EB00094E41201EA4F10104A5
:1001E000DFDC484631462A464346BDE8F09F000022
:1001F000064C074D06E0E06840F0010394E8070074
:1002000098471034AC42F6D3FFF796FFAC250008B0
:10021000CC250008202A04DB203A00FA02F1002055
:1002200070479140C2F1200320FA03F31943904034
:100230007047202A04DB203A21FA02F0002170479F
:1002400021FA02F3D040C2F120029140084319463E
:100250007047000008B50121084600F049FC012163
:100260004FF4047000F068FC0320ADF8000000209B
:100270008DF803006946034800F068FABDE80840BD
:1002800000F002B80010014030B5314D91B0284661
:1002900000F0B0F92F4800902F480024CDE9010468
:1002A0006420CDE903048020059040000690800082
:1002B0000790202008900002CDE9090469462846ED
:1002C00000F00AFA0121284600F088F901208DF893
:1002D00030008DF831000B944FF46020CDE90D040F
:1002E0001C4C02208DF83C004C3C0BA9204600F031
:1002F00057F84FF4404000F0F1FB072301220A2198
:10030000204600F071F8072302220B21204600F05E
:100310006BF80121204600F02BF80121204600F067
:100320001DF8204600F09AF8204600F032F8002828
:10033000FAD1204600F0BCF8204600F023F800284F
:10034000FAD10121204600F0A9F811B030BD00001B
:10035000080002404C240140AC04002000298168C0
:1003600002D041F0010101E021F0010181607047FC
:100370000029816802D041F4807101E021F480718C
:1003800081607047014600208968490700D5012037
:100390007047014600208968090700D50120704791
:1003A00010B542680E4B0C791A400B6842EA0422E1
:1003B0001343436083680B4A1340D1E9024222434E
:1003C0004C7943EA44031A438260C26A097C22F4EE
:1003D0007002491EC9B242EA0151C16210BD00005B
:1003E000FFFEF0FFFDF7F1FF70B5072409290AD9D8
:1003F000C568A1F10A0606EB4606B440A543B34022
:100400001D43C56007E0056901EB4106B440A54303
:10041000B3401D4305611F23072A09D2446B521EB6
:1004200002EB820293409C4391400C43446370BDB5
:100430000D2A09D2046BD21F02EB820293409C4327
:1004400091400C43046370BDC46A0D3A02EB820212
:1004500093409C4391400C43C46270BD816841F05D
:10046000080181607047000070B50B4C0025E078F2
:1004700020B1012802D0022808D0E570E078401CA5
:10048000C0B2E070032800D3E57070BD0B2000F00F
:10049000E7F9E080F2E700006400002000298168AD
:1004A00002D041F4A00101E021F4A0018160704775
:1004B000816841F0040181607047000038B5012176
:1004C000102000F039FB4FF40074ADF80040032019
:1004D0008DF802001020064D8DF80300694628466D
:1004E00000F034F92146284600F0B7F938BD000085
:1004F0000010014010B54FF40041034800F0A4F98A
:10050000002800D0012010BD000C014000F02CFBA1
:10051000482000F0A9FD00F06FFAFFF7CFFF00F0D0
:10052000C2FE01F055FC00F097FD00F09DFCFFF7C6
:1005300091FE00F037F800F0EFF903A001F06AFC3B
:1005400001F02AF8FEE7000048656C6C6F0D0A00A8
:10055000FEE7000010B500280FD000244FF4007211
:1005600001280BD0022808D10021084801F03CFFE7
:1005700007480649C0E90041816010BD00210548D7
:1005800001F032FF024803490C38F3E7AC020020C7
:1005900024000020AC0000200148406800F005BDA8
:1005A0009800002038B50121042000F0C5FA4FF46E
:1005B0008074ADF8004010208DF803000320064D34
:1005C0008DF802006946284600F0C0F8214628460A
:1005D00000F043F938BD000000080140002901681F
:1005E00002D041F0010102E04FF6FE7211400160BD
:1005F0007047000001684FF6FE7211400160002153
:10060000016041608160C1603149314A08399042DE
:1006100003D1486840F00F0006E02D4A14329042A2
:1006200004D1486840F0F00048607047284A2832FA
:10063000904203D1486840F47060F5E7244A3C32A8
:10064000904203D1486840F47040EDE7204A5032B0
:10065000904203D1486840F47020E5E71C4A6432B8
:10066000904203D1486840F47000DDE7184A7832C0
:10067000904203D1486840F07060D5E7154A111FD9
:10068000904203D1086840F00F0006E0114A14328E
:10069000904204D1086840F0F000086070470D4AAD
:1006A0002832904203D1086840F47060F5E7094AA7
:1006B0003C32904203D1086840F47040EDE7054AAF
:1006C00050329042EAD1086840F47020E5E700001B
:1006D000080002400804024030B5036847F6F07293
:1006E00093430C6A8A682243D1E904452C43224390
:1006F0008C692243CC6922434C6A22438C6A224390
:100700001A430260CA6842600A6882604968C16030
:1007100030BD7047704770477047704770470000A2
:1007200004490A6822F010020A600A6802430A605B
:100730007047000000200240034A116801F03801B0
:10074000014311607047000000200240F0B5CA78F4
:10075000002502F00F03D20601D58A7813430A78E8
:100760004FF00F0E12F0FF0F4FF001021CD0046883
:100770000F8802FA05F63740B74211D14FEA850CCF
:100780000EFA0CF724EA070703FA0CF43C43CF787F
:10079000282F02D0482F02D002E0466100E0066117
:1007A0006D1C082DE4D304600C88FF2C1ED944680E
:1007B0005FF0000606F1080702FA07F50F882F40E0
:1007C000AF420FD14FEA860C0EFA0CF7BC4303FA86
:1007D0000CF73C43CF78282F00D14561CF78482FC4
:1007E00000D10561761C082EE4D34460F0BD000002
:1007F000F0B5144C002801DAE36900E06368420DAB
:10080000120185B2C0F301579540C0F30346032F90
:1008100005D0C2020AD50322B240934307E023F079
:100820007062636823F07063636002E0AB4343F07F
:10083000706201B12A43002801DAE261F0BD626012
:10084000F0BD0000000001400246002092680A420C
:1008500000D001207047416170470161704700007E
:1008600010B500240A2804D00B2801D0002010BDA8
:100870000124204601F048FD014830F8140010BD65
:100880006000002001210148FFF7DEBF00080140A1
:10089000FEE7F8B504460068012100F04DF901219A
:1008A000606800F049F9A08AADF8000003258DF8D2
:1008B000025010268DF803606946E068FFF746FF96
:1008C000208AADF800008DF802508DF8036069466B
:1008D000A068FFF73BFFA08A81B2E068FFF7BDFF89
:1008E000208A81B2A068FFF7B8FFF8BD10B50948AB
:1008F00001F014F830B9074801F012F810B1FFF711
:10090000F9FD08B1012010BD024801F001F80020F6
:1009100010BD00002806002008B50121042000F0C9
:100920000BF90120ADF8000048208DF8030069465E
:100930000148FFF70BFF08BD000801402DE9F04119
:100940002C4CFF25E08801F0B7FC00270646FF2865
:1009500001D0012005E001F001FD0646FF2805D089
:100960000220207061788E4208D109E02079C828E1
:1009700001D3032502E0232800D30025277109E0D5
:100980002079401CC0B22071232803D0C8280CD085
:10099000FA280CD06178FF2928D0FF2D26D02078A6
:1009A00001280AD002280DD014E0012502E002251A
:1009B000C8202071FF29F2D118E00E4905EB85000F
:1009C0001E3103E00B4905EB450012310844617804
:1009D000405CA070A078FF2808D0182801D1FFF74C
:1009E000DBFDA07801F0F8FCFF20A0706670BDE888
:1009F000F08100006400002008B50121112000F002
:100A00009BF801210848FFF7F3FE4FF4E070ADF8C2
:100A1000000018208DF8030003208DF802006946BD
:100A20000248FFF793FE08BD000C1A0000100140B9
:100A3000FEE7704770B50F23C47801780122F4B146
:100A4000144C2468457804F4E064C4F5E064240A96
:100A5000C4F10406E3408478B5401C402C4301F106
:100A6000E021230181F80034007800F01F018A4062
:100A70004009800000F1E020C0F8002170BD01F0C5
:100A80001F0082404809800000F1E020C0F880216A
:100A900070BD00000CED00E0024908430249086007
:100AA000704700000000FA050CED00E008B50121D8
:100AB000102000F041F83020ADF8000003208DF840
:100AC000020010208DF8030069460248FFF73EFE41
:100AD00008BD00000010014070470000034A516843
:100AE00021F4404101435160704700000010024072
:100AF000044A0029516901D0014300E0814351615A
:100B00007047000000100240044A0029D16901D05A
:100B1000014300E08143D1617047000000100240B2
:100B2000044A0029116901D0014300E081431161A9
:100B30007047000000100240044A0029916901D06A
:100B4000014300E0814391617047000000100240C2
:100B5000044A0029D16801D0014300E08143D160FB
:100B6000704700000010024010B500F02FF84FF45D
:100B70008034204600F0BCF800F002F9012823D1AF
:100B80001020FFF7CDFD0220FFF7D6FD002000F07A
:100B9000A5F8002000F0D0F8A01100F0C3F84FF441
:100BA000E011204600F0D8F8012000F0CFF83920FD
:100BB00000F074F80028FAD0022000F0D7F800BF47
:100BC00000F084F80828FBD110BD00000C48016833
:100BD00041F00101016041680A4A11404160016829
:100BE000094A11400160016821F4802101604168D7
:100BF00021F4FE0141604FF41F0181607047000045
:100C0000001002400000FFF8FFFFF6FE30B51F495C
:100C10004A6812F00C031E4A03D0042B01D0082BA3
:100C200021D002604A680F231A4C03EA1212A35C17
:100C30000268DA4042604B68072505EA1323E35C4B
:100C400022FA03F383604B6805EAD323E35CDA40BE
:100C5000C2604968032303EA9131231F595CB2FB48
:100C6000F1F1016130BD4A684B6802F470124FF037
:100C7000020413F4803F04EB924202D04B689B03C2
:100C800001D5054B00E0024B5A43CAE70010024071
:100C900000127A000400002000093D0002460020F6
:100CA00053090949012B0BD0022B0BD0D1F824108A
:100CB00002F01F02012393400B4200D00120704735
:100CC0000968F5E7096AF3E7001002400248406846
:100CD00000F00C007047000000100240034A516809
:100CE00021F0F00101435160704700000010024004
:100CF0000B490A6822F480320A600A6822F48022D2
:100D00000A60B0F5803F07D0B0F5802F03D10868A6
:100D100040F4A02008607047086840F48030F9E78C
:100D200000100240034A516821F4E0610143516020
:100D3000704700000010024003494A6822F46052E4
:100D400042EAC0004860704700100240014908664E
:100D50007047000000004242034A5368084323F4EE
:100D60007C1318435060704700100240034A5168DA
:100D700021F0030101435160704700000010024060
:100D800018B500204FF4A06400903120FFF786FFD3
:100D90000099491C0091A14201D00028F5D03120D2
:100DA000FFF77CFF002800D0012018BDF8B5012115
:100DB0001C20FFF7C1FE4FF4C050ADF80000032423
:100DC000134E8DF8024010258DF8035069463046C9
:100DD000FFF7BCFC2801ADF800008DF802408DF84B
:100DE000035069460B48FFF7B1FC0420ADF8000042
:100DF00028208DF8030069460748FFF7A7FCE901A2
:100E00003046FFF72AFD29023046FFF726FDF8BDE0
:100E100000080140000C0140001001400029018839
:100E200002D041F0400101E021F040010180704713
:100E300030B502884C8802F441530A88CD88224399
:100E40008C882C4322430C8922434C8922438C8971
:100E50002243CC8922431A430280828B22F400620F
:100E60008283098A018230BD10B500F013F8FFF7C4
:100E70001DFEBDE81040FFF799BFA1F57E42018835
:100E8000FF3A02D041F4807101E021F480710180C9
:100E90007047000010B586B001210520FFF74CFE19
:100EA00001210803FFF748FEB020ADF8140003202D
:100EB0008DF8160018201F4C8DF8170005A9204644
:100EC000FFF744FC4020ADF8140004208DF8170013
:100ED00005A92046FFF73AFC10212046FFF7BDFC8C
:100EE0000020ADF800004FF48271ADF80210ADF8AB
:100EF00004000221ADF806100121ADF808104902E6
:100F0000ADF80A100821ADF80C10ADF80E0007205E
:100F1000094CADF8100069462046FFF789FFA1157E
:100F20002046FFF7AAFF01212046FFF777FF06B012
:100F300010BD00000008014000300140704700284B
:100F400009D00021FF22416002E083685A54491C05
:100F500003688B42F9DC704770B528B144680668B5
:100F60000123651CB54201DD00230AE0002AFBDBFA
:100F7000826811554168491C416002688A4200DA62
:100F80004260184670BD4FF0FF3100B1416808461D
:100F9000704770B50C460546FFF7F5FF024621463F
:100FA0002846BDE87040FFF7D7BFFFF7C8BF000075
:100FB0000CB50021264801910091026842F480326C
:100FC00002604FF4A063026802F400320092019ABA
:100FD000521C0192009A12B9019A9A42F3D1026806
:100FE000920333D5012100911A490A6842F0100298
:100FF0000A600A6822F003020A600A6842F00202EC
:101000000A604168416041684160416841F4806123
:101010004160416821F47C114160416841F4E8116C
:101020004160016841F08071016001688901FCD56F
:10103000416821F003014160416841F002014160D3
:101040004168C1F381010229FAD10CBD00910CBDA8
:1010500000100240002002400148FFF71ABC0000C7
:1010600030000020704700004FF0E0210A6922F0B4
:1010700004020A610649C00800EB40020870C2EB96
:10108000C0104FF6FF7202EAC000488070470000AF
:10109000140000200F4810B5016841F00101016003
:1010A00041680D4A1140416001680C4A11400160DD
:1010B000016821F480210160416821F4FE01416052
:1010C0004FF41F018160FFF773FF05494FF0006087
:1010D000086010BD001002400000FFF8FFFFF6FEA0
:1010E00008ED00E03EB501210846FFF70DFD132095
:1010F000ADF8040041F61F40ADF800000020ADF847
:101100000600ADF802004FF080446946204600F02A
:10111000A7F90121204600F0A7F801221146204638
:1011200000F0B9F80121204600F0A4F83EBD00000F
:1011300010B501218C07204600F0A6F801281FD128
:10114000FFF792F9FFF7FAFB0E4800F0EBFB0E4AAF
:101150005168491C6420516091FBF0F200FB1210B1
:1011600010B90B2001F038F9FFF7C0FB10B91420BB
:1011700001F032F92046BDE81040012100F077B8B7
:1011800010BD000028060020A000002008B54FF484
:10119000A060FFF781FC1C208DF8000001208DF875
:1011A000010003218DF802108DF803006846FFF757
:1011B00041FC08BD30B587B001210220FFF7A4FC37
:1011C000FF20ADF8140040F2CF70ADF810000024FD
:1011D0001F4DADF81640ADF8124004A9284600F0A6
:1011E0003FF96020ADF800000120ADF802000220B8
:1011F000ADF80800ADF806406946284600F05CF8F6
:101200000821284600F098F86946284600F09AF828
:101210000821284600F0D6F86946284600F0DCF898
:101220000821284600F016F90121284600F012F89E
:101230000121284600F01EF8054834300480001DC6
:101240000480001D0480001D048007B030BD000034
:10125000000400400029018802D041F0800101E033
:1012600021F0800101807047C94301827047C94362
:10127000018270470029018802D041F0010101E09C
:1012800021F001010180704702460020128A0A42C3
:1012900000D001207047002A828901D00A4300E073
:1012A0008A438281704710B5FFF71CFFFFF76EFF7E
:1012B000BDE81040FFF77EBF30B5028C22F001027E
:1012C0000284028C8388048B22F0020224F07305CE
:1012D0000C882C430D8915434A882A43114DA84296
:1012E0000BD0114DA84208D0104DA84205D0104D8A
:1012F000A84202D00F4DA8420DD122F008054A891C
:1013000023F440732A4322F004058A882A438D89F6
:101310001D43CB892B4383800483C9888186028443
:1013200030BD0000002C014000340140004001406D
:101330000044014000480140028B22F008020A43A9
:101340000283704770B5028C22F010020284028C76
:101350008488038B0D8823F4E6464FF6FF7303EA77
:10136000052535430E8922F0200203EA06161643AE
:101370004A8803EA02123243104EB04202D0104EA5
:10138000B04215D122F080064A8924F4406403EA71
:101390000212324322F040068A8803EA02123243E4
:1013A0008E8903EA86062643CC8903EA8404344303
:1013B00084800583C9880187028470BD002C0140A8
:1013C00000340140028B4FF6FF7322F4006203EAFF
:1013D000012111430183704770B5028C22F48072A1
:1013E0000284028C8488838B0D8823F073031D4351
:1013F00022F400730E894FF6FF7202EA06261E439E
:101400004B8802EA03233343104EB04202D0104E01
:10141000B04215D123F400664B8924F4405402EA0B
:101420000323334323F480668B8802EA0323334388
:101430008E8902EA06162643CC8902EA0414344354
:1014400084808583C9888187038470BD002C014016
:1014500000340140828B22F008020A4382837047E5
:1014600030B502881B4B1C4C98420DD0A0420BD0CB
:10147000B0F1804F08D0194DA84205D0184DA842B0
:1014800002D0184DA84203D122F070054A882A43A1
:10149000154DA84206D0154DA84203D022F4407540
:1014A000CA882A4302808A8882850A8802859842EF
:1014B0000AD0A04208D00E4A904205D00D4A904270
:1014C00002D00D4A904201D1097A01860121818220
:1014D00030BD0000002C01400034014000040040F9
:1014E00000080040000C00400010004000140040C4
:1014F0000040014000440140004801404FF4804159
:101500000148FFF7A1B90000000C01400221014889
:10151000FFF7A1B900080140F8B501210420FFF749
:101520000BFB01210820FFF707FB01211020FFF72B
:1015300003FB0820ADF800001024144E8DF8034082
:1015400003258DF8025069463046FFF7FFF8022068
:10155000ADF800008DF803400D4C8DF8025069463F
:101560002046FFF7F3F808213046FFF776F902210D
:101570002046FFF772F96803ADF8000048208DF8A7
:10158000030069460348FFF7E1F8F8BD0010014089
:1015900000080140000C01402AA000F03BFC2EA0F6
:1015A00000F02AFCFFF7B8FF4FF400722D492E48D7
:1015B00000F0DDFE2D4901200870FFF7A7FF4FF472
:1015C0007A74204600F08CFE204600F089FE20460A
:1015D00000F086FE204600F083FE00F01BF9C8B143
:1015E00023A000BF00F016FC204600F079FE204644
:1015F00000F076FE204600F073FE25A000F0FCFB14
:1016000024A000F0D1F8204600F06AFE204600F049
:1016100067FE0EE023A0E5E72CA000F0FBFB31A065
:1016200000F0EAFB204600F05BFEF8E731A000F096
:10163000F1FB204600F054FEFFF760FF0028F5D1D3
:10164000EAE70000544C5352383236365F496E692F
:1016500074200D0A000000003D3D3D3D48656C6C66
:101660006F0D0A00AC020020080600209700002041
:10167000544C5352383236365F546573745F53742A
:10168000617274757020424C455F4552524F522032
:101690000D0A00004F574C2D494F54333256322E0D
:1016A00031000000544C5352383236365F54657363
:1016B000745F5374617274757020424C455F53556A
:1016C0004343455353200D0A00000000424C45207F
:1016D000436F6E6E656374205355434345535320E7
:1016E0000D0A000048656C6C6F20576F726C6421A6
:1016F000210D0A00424C4520436F6E6E65637420D5
:1017000066696C6564200D0A0000000010B50220B7
:10171000FEF720FFBDE810404FF400720149024877
:1017200000F025BEAC0200200806002010B50446DB
:1017300001460C4800F021FE611C0A4800F01DFE25
:10174000A11C084800F019FEE11C064800F015FE37
:10175000211D044800F011FE611DBDE81040014844
:1017600000F00BBE0806002010B50146042205A0BB
:1017700000F059FE08B1012010BD04A000F04AFBA2
:10178000002010BD4F4B0D0A00000000424C4520C8
:10179000415420636D642053756363657373210D39
:1017A0000A00000000F028BB10B58AB004460020F3
:1017B00008900990202212496846FEF7D5FCFFF7F1
:1017C000A5FF2146684600F017FE69460DA000F00F
:1017D00021FB6846FFF7E6FF0446684600F019FE65
:1017E00084420BD14FF4487000F07AFD08A8FFF74F
:1017F0009DFF08A8FFF7B8FF0AB010BD0120FBE766
:10180000982400086E616D655F627566203D202535
:10181000730D0A007CB50020009004460190FFF78C
:1018200075FF1CA0FFF7BEFF05461AA000F0F1FDF2
:10183000854222D118A000F0EDFAC82000F050FD3A
:101840006846FFF773FF694619A000F0E3FA1B48EA
:1018500000F0DFFD0246194919A000F0DBFA174835
:10186000015D4F290BD0641CE4B2052CF8D304228F
:1018700069461AA000F0D7FD30B101207CBD214699
:1018800018A000F0C7FAF2E719A000F0C3FA002090
:101890007CBD0000415400002B2B2B2B2B2B2B2B22
:1018A0002B2B2B2B2B2B2B2B2B2B2B0D0A00000048
:1018B000627566203A2025730D0A0000AC020020F4
:1018C0005573617274335F62756666203A202573C2
:1018D0006C656E3D2025640D0A0000004F4B0D0A1B
:1018E000000000004F4B206C656E203D20256400F9
:1018F000424C4520415420636D64205374617274DE
:1019000075702053756363657373210D0A000000C1
:10191000002101608160012101737047007B7047E5
:10192000806870470168491C01604268914206D195
:10193000002101608168491C8160C8B270470020A5
:10194000704738B54FF4A060FFF7A6F826208DF851
:10195000000000248DF801408DF8024001258DF82B
:1019600003506846FFF766F827208DF800008DF8D1
:1019700001408DF802508DF803506846FFF75AF881
:1019800038BD000030B51F4C85B0204600F052F93C
:10199000012144F20400FFF7CFF86015ADF8100004
:1019A00018208DF813000320174D8DF8120004A99C
:1019B0002846FEF7CBFE2015ADF8100004208DF868
:1019C000130004A92846FEF7C1FE00214FF4E130C0
:1019D0000090ADF80810ADF804100C20ADF806101A
:1019E000ADF80C10ADF80A006946204600F09AF9EF
:1019F000208820F0400020800121204600F010F9CE
:101A000005B030BD003801400008014070470000BB
:101A100030B585B001210420FFF78EF8012148047C
:101A2000FFF772F80424ADF8104018208DF8130069
:101A300003201A4D8DF8120004A92846FEF786FEF1
:101A40000820ADF810008DF8134004A92846FEF7D1
:101A50007DFE4FF4164000900020ADF80400ADF874
:101A60000600ADF80800ADF80C000C200C4CADF8E9
:101A70000A006946204600F055F9012240F225513E
:101A8000204600F037F9208820F040002080012116
:101A9000204600F0C5F805B030BD00000008014048
:101AA0000044004070B5124C0821204600F0FCF8BC
:101AB00010B1204600F097F940F2255529462046FE
:101AC00000F0F9F8002812D02946204600F0A2F8CC
:101AD0000748001D0088C1B206480170064800781A
:101AE000002804D0BDE87040044800F05ABC70BD26
:101AF00000440040A0000020960000207405002053
:101B000030B585B001210820FFF716F801218804BF
:101B1000FEF7FAFF4FF48060ADF8000018208DF852
:101B20000300214D03248DF8024069462846FEF744
:101B30000DFE6814ADF8000010208DF803008DF83C
:101B4000024069462846FEF701FE4FF49040ADF88A
:101B5000000004208DF8030069462846FEF7F6FDD4
:101B60004FF4165001900020ADF80800ADF80A00BF
:101B7000ADF80C00ADF810000C200C4CADF80E00C8
:101B800001A9204600F0CEF8012240F2255120465E
:101B900000F0B0F8208820F040002080012120468D
:101BA00000F03EF805B030BD000C01400048004098
:101BB00070B5154C1021204600F076F8082120461B
:101BC00000F072F810B1204600F00DF940F22556F1
:101BD00031462546204600F06EF8002813D00A480A
:101BE000001D00883146C4B2284600F013F80748AB
:101BF000007818B12146064800F0D3FB2046BDE826
:101C0000704000F025BC70BD0048004097000020E7
:101C1000080600200A0A01219140C943018070474B
:101C20000029818902D041F4005101E021F40051E2
:101C300081817047174910B588420AD101218C0370
:101C40002046FEF785FF2046BDE810400021FEF744
:101C50007FBF1149884202D101214C0410E00F4995
:101C6000884202D101218C040AE00D49884202D148
:101C70000121CC0404E00B4988420AD101210C0562
:101C80002046FEF74DFF2046BDE810400021FEF73C
:101C900047BF10BD003801400044004000480040EC
:101CA000004C0040005000400246002012880A42CA
:101CB00000D00120704730B501F01F02012400253B
:101CC000C1F3421304FA02F2012B0FD0022B0FD002
:101CD000838A4FEA11210088134204FA01F400EAD2
:101CE000040001D000B10125284630BD8389F0E70A
:101CF000038AEEE710B5C1F3421301F01F0401217E
:101D0000A140012B07D0022B07D01430002A026813
:101D100005D00A4304E00C30F8E71030F6E78A43B8
:101D2000026010BD30B50446008A85B00D464CF601
:101D3000FF710840E98801432182A1894EF6F31022
:101D40000140A8882A8910436A890A431043A08168
:101D5000A08A4FF6FF410840A9890143A182684645
:101D6000FEF754FF1948844201D1039800E002981D
:101D7000A189090400EBC00101EB0010296801D51D
:101D8000490000E08900B0FBF1F06422B0FBF2F101
:101D900009010B096FF018056B4300EB8300A38961
:101DA0001D044FF0320306D503EBC000B0FBF2F088
:101DB00000F0070005E003EB0010B0FBF2F000F0CC
:101DC0000F000843208105B030BD000000380140FD
:101DD00010B5FFF7B6FDFFF7D5FDFFF719FEBDE81B
:101DE0001040FFF78DBE8088C0F308007047C1F334
:101DF000080181807047FEE770B50446002503E0C6
:101E000000F038FB641C6D1C20780028F8D12846AF
:101E100070BD00000FB4054B10B503A9044A029829
:101E200000F018F810BC5DF814FB0000392300081E
:101E3000A800002002E008C8121F08C1002AFAD139
:101E400070477047002001E001C1121F002AFBD13A
:101E5000704700002DE9FF4F8DB00F460546002664
:101E600006E025280BD0DDE90F1290476D1C761C8B
:101E700028780028F5D111B03046BDE8F08F002455
:101E8000A246A1460122EC4900E0044315F8013FB7
:101E9000203B02FA03F00842F7D128782A2810D014
:101EA0006FF02F022878A0F13001092914D80AEB2D
:101EB0008A0102EB410144F0020400EB010A6D1CAF
:101EC000F0E701CF5FEA000A03D544F40054CAF1F9
:101ED000000A44F002046D1C28782E2817D115F84A
:101EE000010F44F004042A280ED06FF02F02287846
:101EF000A0F1300109290AD809EB890102EB41015F
:101F000000EB01096D1CF2E757F8049B6D1C287863
:101F10006C280FD006DC4C2817D068280DD06A2812
:101F200014D104E0742810D07A280FD10DE044F4C5
:101F300000140AE044F4801401E044F44014697889
:101F4000814202D104F580146D1C6D1C2A786E2A22
:101F50001FD00CDC632A31D004DC002A8BD0582A35
:101F600011D1A3E0642A68D0692A0CD165E0732AF4
:101F70002ED004DC6F2A73D0702A04D19BE0752A1E
:101F80006FD0782A6ED01046DDE90F129047761C8C
:101F900050E1C4F30250022806D0032809D00428D7
:101FA00001CF09D0066045E101CFF117C0E900611A
:101FB00040E101CF06803DE106703BE117F8040BDC
:101FC0008DF8000000208DF80100EB46012003E0B1
:101FD00057F804BB4FF0FF3061074FF0000102D407
:101FE0000DE008F10101884649450FDA8045F8DB2C
:101FF0001BF808100029F4D108E008F10101884617
:102000008142FADB1BF808100029F6D1DDE90F2325
:10201000AAEB08008146214600F036F9304400EB77
:10202000080604E0DDE90F121BF8010B9047B8F138
:102030000108F7D221464846F7E00A21C4F30253CB
:102040004FF0000B0891022B04D001CFC117032BD6
:1020500009D00AE0FF1D27F00707F7E8020108E0B2
:1020600032E01FE020E000B2C117042B01D140B2E2
:10207000C117031E71F1000307DA4FF0000CD0EB1B
:102080000C006CEB01012D2302E0230504D52B236A
:102090008DF82430012303E0E30701D02023F7E784
:1020A000984658E00A2110E010210EE010204FF071
:1020B000000B08900CE010214FF0000B44F00404DA
:1020C0004FF00809089103E008214FF0000B089138
:1020D000C4F30253022B04D001CF0021032B06D0FE
:1020E00006E0FF1D27F00707F7E8020103E080B2D2
:1020F000042B00D1C0B24FF0000823072BD5702A63
:1021000007D0DDF820C08CF0100C5CEA0B0C05D079
:102110000EE040238DF82430012308E050EA01034B
:1021200006D030238DF824308DF8252002239846E0
:10213000DDF820C08CF0080C5CEA0B0C0BD150EAE7
:10214000010301D1630706D530238DF824304FF009
:102150000108A9F10109582A04D038A20B9208AA53
:102160000A920BE03AA2F9E75B46089AFEF70EF8EE
:102170000B9B9B5C0A9A521E0A92137050EA010252
:10218000F2D10A98ADEB000000F1200B600702D5F8
:1021900024F4803401E04FF00109D94502DDA9EBB8
:1021A0000B0000E0002000EB0B0141440890AAEB7B
:1021B000010AE00306D4DDE90F232146504600F072
:1021C00063F806444FF0000908E009A911F8090076
:1021D000DDE90F12904709F10109761CC145F4DBD6
:1021E000E0030CD5DDE90F232146504600F04CF802
:1021F000064404E0DDE90F1230209047761C089970
:10220000481E08900029F5DC08E00A980A99007831
:10221000491C0A91DDE90F129047761CBBF10001C1
:10222000ABF1010BF1DC21465046DDE90F2300F054
:1022300019F806446D1C1BE60928010030313233C1
:1022400034353637383961626364656600000000F2
:1022500030313233343536373839414243444546DC
:10226000000000002DE9F041044600251E461746F7
:10227000880404D405E039462020B0476D1C641E54
:10228000F9D52846BDE8F0812DE9F0410446002546
:102290001E469046C80301D5302700E02027880459
:1022A00004D505E041463846B0476D1C641EF9D59B
:1022B0002846BDE8F081000001460020B1F5E16F3D
:1022C00001D9FF207047054A32F810308B42F9D807
:1022D000401CC0B20428F7D3704700006C000020F7
:1022E0000849498848434FF0E0214861002088614F
:1022F00001220A610A69D30701D0D203FAD5086125
:10230000886170471400002010B50022084B114668
:1023100003EB810434F81040491CC9B2224432292D
:10232000F6D3322192FBF1F1024A22F8101010BDCF
:10233000AC0400206000002070B5074D0446C1B217
:102340002846FFF754FD40212846FFF7ADFC002842
:10235000F9D0204670BD00000038014010B5FEF7EE
:1023600091FA002800D0FF2010BDFEF7CFF80160E1
:102370000A444160C0E902127047D0E90132934239
:102380000BD012780A708168491C8160C268914242
:1023900001D10168816001207047FF200870002092
:1023A000704710B5D0E901235C1EA24211D0C46869
:1023B000641EA24202D10468A3420AD0117041688F
:1023C000491C4160C268914201D10168416001200D
:1023D00010BD002010BD0000014602484068FEF715
:1023E000D8BD000098000020002301E0C1545B1C10
:1023F0009342FBD310467047B0F1010212F8013F3F
:10240000002BFBD111F8013B02F8013B002BF9D165
:102410007047002108B904E0491C10F8012B002A7C
:10242000FAD10846704730B500230DE0C45CCD5C9E
:10243000AC4208D02006B0EB056F01D9012030BDB9
:102440004FF0FF3030BD5B1C9342EFD3002030BD16
:1024500070B5074C054601462046FFF7C8FC8021B1
:102460002046FFF721FC0128F9D1284670BD000065
:102470000038014070B5074C054601462046FFF77D
:10248000B6FC80212046FFF70FFC0128F9D1284631
:1024900070BD00000048004041542B4E414D453D69
:1024A000000000000000000000000000000000002C
:1024B000000000000000000041542B454E5F4144E5
:1024C000563D000000000000000000000000000079
:1024D000000000000000000041542B554152543DC3
:1024E00000000000000000000000000000000000EC
:1024F000000000000000000041542B536572766913
:102500006365555549443D0000000000000000008F
:1025100000000000000000000000000000000000BB
:1025200000000000000000000000000000000000AB
:102530000000000041542B4E6F7469667943686156
:10254000723D0000000000000000000000000000DC
:10255000000000000000000000000000000000007B
:10256000000000000000000000000000000000006B
:1025700041542B5772697465436861723D000000D5
:10258000000000000000000000000000000000004B
:10259000000000000000000000000000000000003B
:1025A000000000000000000000000000CC25000832
:1025B00000000020AC000000341E0008782600084F
:1025C000AC0000208C090000441E0008020406082C
:1025D00000000000010203040102030406070809C9
:1025E0000000000000000000AC000020AC00002053
:1025F00000000000AC020020AC0200200800000037
:1026000008000000000C0140000C014080000000A8
:1026100040000000000000005B08000857080008A8
:102620004908000800000000000000000000000051
:1026300000FFFF0000000000F500D8026304BE05A3
:10264000C20615FFFF17FFFF16FFFF18FFFF191D3A
:102650002125291B1F23272B1A1E22262A1C202452
:10266000282C0000FF000000000000000000000017
:08267000000000000000000062
:0400000508000131BD
:00000001FF
